:020000040800F2
:10000000E0080020D50100080D2700084125000860
:100010000927000881080008992C0008000000004A
:100020000000000000000000000000005D2B000840
:100030008508000800000000FD290008612B000869
:10004000EF010008EF010008EF010008EF010008D0
:10005000EF010008EF010008EF010008EF010008C0
:10006000EF010008EF010008EF010008EF010008B0
:10007000EF010008EF010008EF010008EF010008A0
:10008000EF010008EF010008EF010008EF01000890
:10009000EF010008EF010008EF010008EF01000880
:1000A000EF010008EF010008EF010008EF01000870
:1000B000692B0008EF010008EF010008EF010008BC
:1000C000EF010008EF010008EF010008EF01000850
:1000D000EF010008812C00088D2C0008EF010008BA
:1000E000EF010008EF010008EF01000800F002F83E
:1000F00000F061F814A696E8000CB244B344DA4567
:1001000001D100F058F8BAE80F000FA696E83000C9
:10011000A5EB040504EB0607AAEB0704A7F101070A
:100120004FEA15154FEA3414A4F10104AC4201D38F
:1001300000F041F813F0010F18BFFB1A43F0010360
:1001400000F001F8DBE71847B0310000D0310000C3
:10015000103A24BF78C878C1FAD8520724BF30C8F3
:1001600030C144BF04680C60704700007047000055
:100170000023002400250026103A28BF78C1FBD8B0
:10018000520728BF30C148BF0B607047642900F098
:10019000AB80732900F0F181002070471FB500F09B
:1001A00009FB04000020002103F058F8401C6060A7
:1001B0001FBD10B510BD00F0D8FA1146FFF7EEFFD5
:1001C00002F0C2FF00F008FB03B4FFF7F2FF03BC2C
:1001D00002F060FE0948804709480047FEE7FEE755
:1001E000FEE7FEE7FEE7FEE7FEE7FEE7FEE7FEE7E7
:1001F00004480549054A064B70470000652B000876
:10020000ED000008E0020020E0080020E0040020EB
:10021000E00400200FB4044910B503AA029800F0CE
:10022000B1F910BC5DF814FBC40000202DE9F041C9
:100230000E460446002020622046E168884730B31D
:10024000252805D0D4E901219047206A401CF2E717
:10025000E168204600278847050018D0A5F1410035
:10026000192802D820354FF4006732462946204627
:100270002760FFF78BFF40B1012804D0F61D26F060
:1002800007060836D8E7361DD6E72846DAE7206A9B
:10029000BDE8F08170B50C460546012A05D02878E6
:1002A000800600D5EA69002302E0012305E05B1C1B
:1002B000934202D2E05C0028F9D1A869E618C01A7E
:1002C000A861286A184428622846AFF3008004E039
:1002D000D5E9012114F8010B9047B442F8D3284620
:1002E000AFF3008070BD00002DE9F0410646002408
:1002F00010687529314616A510D0AFF3008000288C
:1003000002DA404213A507E031688A0701D512A539
:1003100002E0490704D511A5012401E0AFF30080F4
:1003200000210A2206F1240709E0B0FBF2FCB0FB31
:10033000F2F302FB1C00303078541846491C0028A8
:10034000F3D123462A463046BDE8F04100F0AAB872
:10035000000000002D0000002B0000002000000025
:1003600070B5064600F09AF80468054630460A2241
:10037000002100F019F92C6070BD000010B5044692
:1003800003E002F0CDFE401C09D014F8010B054932
:100390000028F6D1BDE810400A2002F0C1BE4FF09F
:1003A000FF3010BDC4000020401ECAB210F8011F6B
:1003B0008A4202D00029F9D100207047032A40F276
:1003C000308010F0030C00F0158011F8013BBCF1F7
:1003D000020F624498BF11F801CB00F8013B38BF0F
:1003E00011F8013BA2F1040298BF00F801CB38BF1D
:1003F00000F8013B11F0030300F00E81083AC0F051
:10040000088051F8043B083A51F804CBA0E80810E2
:10041000F5E7121D5CBF51F8043B40F8043BAFF315
:100420000080D20724BF11F8013B11F801CB48BF6F
:1004300011F8012B24BF00F8013B00F801CB48BFA5
:1004400000F8012B70474FF0000200B513469446A8
:100450009646203922BFA0E80C50A0E80C50B1F11C
:100460002001BFF4F7AF090728BFA0E80C5048BF30
:100470000CC05DF804EB890028BF40F8042B08BFCE
:10048000704748BF20F8022B11F0804F18BF00F8CA
:10049000012B704770477047704700000048704755
:1004A000100000202DE9F0470D469946924604467B
:1004B00000F124080168880604D5E06921F01001E4
:1004C000216000E00120A84201DD471B00E0002779
:1004D000A1697A1902EB0900081AA0612078C00608
:1004E00002D42046AFF30080002608E0D4E90121C1
:1004F0001AF806009047206A401C761C20624E4580
:10050000F4DB2078C0060AD52046AFF3008006E071
:10051000D4E9012130209047206A401C2062381E17
:10052000A7F10107F4DC07E0D4E9012118F8050080
:100530009047206A401C2062281EA5F10105F3DCCB
:100540002046AFF300802078000602D50220BDE8E7
:10055000F0870120FBE710B5436913B1AFF30080CA
:1005600001E0FFF797FE012010BD127800F1240191
:100570000A7000224A700122EDE711684FF0FF3245
:10058000E9E70000074B70B50D467B4400F087F8A3
:100590000446284600F0E5F810B14FF0FF3070BD7A
:1005A000204670BD932B00002DE9F04791460F4681
:1005B00080460446002614F8015B2DB100F062F875
:1005C0000068405DC007F6D12B2D02D02D2D18D02C
:1005D000641E4A463946204600F074F827B139684F
:1005E000A14201D1C7F800804FF0020471050BD57C
:1005F0004042002803DDFFF751FF0460A007BDE87B
:10060000F08746F48066E4E70028F8DAFFF746FF53
:1006100004606FF00040F2E710B5203AC0F00B80A4
:10062000B1E81850A0E81850B1E81850A0E81850E8
:10063000203ABFF4F5AF5FEA027C24BFB1E818505E
:10064000A0E8185044BF18C918C0BDE810405FEAC0
:10065000827C24BF51F8043B40F8043B08BF70473C
:10066000D20728BF31F8023B48BF11F8012B28BF41
:1006700020F8023B48BF00F8012B70470048704744
:100680001000002010B500F095F8001D10BD00BF4F
:10069000CD2B000001694A1C02610878704700B543
:1006A0008FB0CDE901310021059105497944CDE9AB
:1006B000031011466846FFF7B9FD0FB000BD0000FA
:1006C000E5FFFFFF2DE9F05F824615468B460027C8
:1006D0000AF10104B9460078302801D09DB113E039
:1006E00014F8010B0127782803D0582801D045B110
:1006F0000AE00DB1102D07D1002714F8010B1025C9
:1007000002E0082500E00A250026B0460EE005FBC1
:10071000080005FB06F101271FFA80F801EB1046DF
:10072000B6F5803F00D3B94614F8010B294600F016
:1007300045F80028EBDABBF1000F05D00FB1641EBD
:1007400000E05446CBF80040B9F1000F06D0FFF7A7
:10075000A5FE02210160C81EBDE8F09F48EA0640E0
:10076000FAE7007B00F0800070477546FFF786FFD0
:10077000AE4605006946534620F00700854618B08E
:1007800020B5FFF735FDBDE820404FF000064FF0E3
:1007900000074FF000084FF0000BAC46ACE8C00972
:1007A000ACE8C009ACE8C009ACE8C00921F0070119
:1007B0008D46704700487047300000203A2800D22C
:1007C000303820F02002412A01D3A2F137008842BC
:1007D00001D34FF0FF30704710B50446AFF30080EF
:1007E0002046BDE81040FFF7EFBC00004FF0013C91
:1007F00050F8042B51F8043B9A4221D1A2EB0C0390
:10080000934313EACC1317D150F8042B51F8043B4F
:100810009A4215D1A2EB0C03934313EACC130BD1EC
:1008200050F8042B51F8043B9A4209D1A2EB0C0377
:10083000934313EACC13DBD04FF00000704700BFA6
:10084000D01A01BAB1FA81F101F0180122FA01F0CF
:10085000CB40DBB2C0B2C01AC1F120012CFA01F3C7
:10086000D11A914311EAC311E6D1704740F6004016
:10087000C4F201004FF40041002200F025BB00004B
:10088000FEE7000070470000022888BF704770B57F
:10089000C000C0B2012121FA00F24FF4807140F68D
:1008A000004421FA00F54FF48031C4F2010421FA2A
:1008B00000F620464FF4805100F006FBEAB22046D5
:1008C0004FF4804100F000FBF2B220464FF400519B
:1008D000BDE8704000F0F8BA632888BF70472DE982
:1008E000F04F81B0CD214143CE0A06EB860140F6A0
:1008F0000004A0EB4101C4F201045FFA81FA009008
:1009000020462021012200F0DFFA2046102100229B
:1009100000F0DAFA20461021012200F0D5FA6FF437
:100920005F7020FA0AF000F001022046202100F05A
:10093000CBFA20461021002200F0C6FA20461021F2
:10094000012200F0C1FA4FF61245CFF6FF7505F10E
:100950007C0727FA0AF000F001022046202100F06F
:10096000B3FA20461021002200F0AEFA20461021F2
:10097000012200F0A9FA05F52A7828FA0AF000F019
:1009800001022046202100F09FFA2046102100227B
:1009900000F09AFA20461021012200F095FA05F1A4
:1009A000800929FA0AF000F001022046202100F017
:1009B0008BFA20461021002200F086FA20461021F2
:1009C000012200F081FAAAF10200B0FA80F0420997
:1009D0002046202100F078FA20461021002200F065
:1009E00073FA20461021012200F06EFA05F14E0B39
:1009F0002BFA0AF000F001022046202100F064FAF0
:100A000020461021002200F05FFA2046102101222A
:100A100000F05AFA25FA0AF000F0010220462021DF
:100A200000F052FA20461021002200F04DFA204634
:100A30001021012200F048FA20462021012200F076
:100A400043FA20461021002200F03EFA20461021F1
:100A5000012200F039FA6FF45F70F04000F00102FB
:100A60002046202100F030FA20461021002200F01C
:100A70002BFA20461021012200F026FA27FA06F070
:100A800000F001022046202100F01EFA204610212D
:100A9000002200F019FA20461021012200F014FA79
:100AA00028FA06F000F001022046202100F00CFA9E
:100AB00020461021002200F007FA204610210122D2
:100AC00000F002FA29FA06F000F001022046202187
:100AD00000F0FAF920461021002200F0F5F9204636
:100AE0001021012200F0F0F9009800221438C0B261
:100AF0000A2820464FF0200138BF012200F0E4F917
:100B000020461021002200F0DFF9204610210122AA
:100B100000F0DAF92BFA06F000F00102204620215D
:100B200000F0D2F920461021002200F0CDF9204635
:100B30001021012200F0C8F925FA06F000F00102A8
:100B40002046202100F0C0F920461021002200F0AC
:100B5000BBF920461021012200F0B6F920464021C1
:100B6000012200F0B1F920464021002201B0BDE889
:100B7000F04F00F0A9B90000EFF3108072B600BF8B
:100B8000FEE70000014690F82100022816D108680F
:100B9000D1E90FC3026822F00E020260026822F05F
:100BA00001020260012000FA03F2CCF8042081F86F
:100BB00021000020002281F8202070470420886353
:100BC0000120002281F820207047000090F82110B9
:100BD000022923D1026840F2040C1168C4F2020C0D
:100BE00021F00E01116013682F21C4F202018A4224
:100BF00023F00103136015DD3023C4F202039A428F
:100C00001CD04423C4F202039A421BD05823C4F2DE
:100C100002039A421CD14FF4803321E00421816306
:100C2000012070470823C4F202039A420ED01C230D
:100C3000C4F202039A420BD1102311E04FF48073E7
:100C40000EE000BF4FF480530AE000BF012307E02D
:100C50000CF168014FF080738A4208BF4FF4801393
:100C60000121CCF8003080F82110416B00220029CE
:100C700080F8202004BF0020704780B588470020FE
:100C800080BD0000B0B5044600F024F9054640F2EE
:100C90000000C2F200000078611C18BF044400BFCD
:100CA00000F018F9401BA042FAD3B0BD2DE9F04F77
:100CB00082B00E68002E00F0FD8041F20042C4F2C6
:100CC0000102042340F2004E904208BF03234FF676
:100CD000FF7CC4F2010E009300240123C1F2100C2A
:100CE0004FF0000A4FF000094BE000BF41F2000254
:100CF000C4F20102009F904208BF022704F00C03D7
:100D00000F229A402BEA020207FA03F34FEA9A05F0
:100D10001A4346F825204E6840F20C45F202DEF8F0
:100D2000082054BF22EA080242EA0802C4F2010580
:100D3000CEF808202A68B30254BF22EA080242EA29
:100D400008022A60B303DEF8042054BF22EA080236
:100D500042EA0802F303CEF80420DEF800204FF048
:100D6000010354BF22EA080242EA0802CEF800203A
:100D70000E680AF1010A36FA0AF204F1040400F0DE
:100D8000998003FA0AFB16EA0B08F1D04E68664513
:100D900012DC122E56D8DFE806F0350B4D495555BA
:100DA000555555555555555555555545510000BF47
:100DB000D1F80C9046E000BF4FF6FF72C1F221025D
:100DC00096420FDC0022C1F2110296421AD0002294
:100DD000C1F21202964215D00022C1F221029642BF
:100DE00010D02FE00022C1F2220296420AD0002247
:100DF000C1F23102964205D00022C1F2320296427F
:100E000020D100BF8A684AB1012A14BFC0F814B0CB
:100E1000C0F810B04FF0080914E000BF4FF004090B
:100E200010E000BFCA6802F104090BE04FF00009AE
:100E300008E000BFCA6802F1080903E0CA6802F1CD
:100E40000C0900BF02462646B8F5807F24BF043255
:100E5000203E17680F25B54027EA050509FA06F672
:100E600035431560CA79D2067FF582AF41F2180387
:100E7000C4F202031A68AEF57E7642F001021A60EF
:100E80001A6802F001020192019A2AF0030256F850
:100E900002B040F60002C4F20102904208D040F6CF
:100EA0000042C4F2010290427FF420AF012725E7FF
:100EB000002723E702B0BDE8F08F000080680840FB
:100EC00018BF012070470000002A08BF0904016113
:100ED0007047000040F2DC20C2F20000006870475A
:100EE00040F2000040F2DC21C2F20000C2F2000138
:100EF00000780A68104408607047000080B542F22C
:100F00000000C4F20200016841F0100101600320FA
:100F100000F08CF80F2000F005F800F027F8002012
:100F200080BD000070B540F20006C2F2000640F23B
:100F30000C013278C2F200014FF47A730968B3FBF6
:100F4000F2F20446B1FBF2F1084600F085FB0F2CEB
:100F50004FF0010508D838B94FF0FF302146002284
:100F6000002500F037F87460284670BD82B041F269
:100F70001800C4F202000168022241F00101016080
:100F8000016801F0010101910199416841F080512E
:100F90004160406800F08050009000980420C4F246
:100FA0000100016862F31A61016002B0704700003D
:100FB000002848BF704700F01F01012202FA01F12A
:100FC0001C2202EAD0004EF20012CEF20002815042
:100FD0007047000010B54EF60C5CCEF2000CDCF849
:100FE0000030C3F3022E8EF00704042C28BF042423
:100FF000BEF103034FF0FF3E0EFA04F438BF0023A6
:10100000A14399400EFA03F39A43114300F00F02F3
:1010100000F160430901043A03F564436244002887
:1010200048BF02F10C03197010BD00004EF60C51C0
:10103000CEF200010A684FF6FF031A4060F30A225D
:1010400042F0806040F0FD7008607047002804BFE7
:10105000012070472DE9F04381B042F20008C4F24C
:1010600002080446D8F800000D4600F0070081424F
:101070000CD9D8F8000020F007002843C8F8000079
:10108000D8F8000000F00700A8426CD1206841F2B7
:1010900004098107C4F2020917D5410705D5D9F81B
:1010A000001041F4E061C9F80010010705D5D9F836
:1010B000001041F46051C9F80010D9F80010A2687E
:1010C00021F0F0011143C9F80010C00742D1D8F84F
:1010D000000000F0070085420CD2D8F8000020F094
:1010E00007002843C8F80000D8F8000000F0070007
:1010F000A84238D12068410707D5D9F80010E26826
:1011000021F4E0611143C9F80010000708D5D9F8AF
:101110000000216920F4605040EAC100C9F80000D5
:10112000D9F8002002F00C00082841F20020C0F29B
:101130007A004DD143F2A223C2F38341C0F60003EB
:10114000595CD20338D440F60010C0F23D00484349
:101150003EE000BF606859F8041C022808D001284E
:1011600026D1890306D4012001B0BDE8F08300BF79
:101170008901F8D5D9F8001021F003010843C9F816
:101180000000FFF7A7FE064641F28837D9F80000B5
:10119000616800F00C00B0EB810F98D0FFF79AFE69
:1011A000801BB842F2D9032001B0BDE8F08300BF34
:1011B0008907D8D5DEE700BFD9F8002043F2A02385
:1011C000C2F34042C0F600039A5C4843B0FBF2F021
:1011D000D9F8001043F28822C1F30311C0F60002CF
:1011E000515C40F20C0220FA01F140F20400C2F21C
:1011F00000000068C2F200021160FFF793FE0020B9
:1012000001B0BDE8F083000040F20C0041F204019F
:10121000C2F20000C4F202010068096843F2982299
:10122000C1F30221C0F60002515CC84070470000C3
:1012300040F20C0041F20401C2F20000C4F20201CB
:101240000068096843F29822C1F3C221C0F6000287
:10125000515CC84070470000002804BF012070475F
:101260002DE9F04182B00446007841F20006C00743
:10127000C4F202060CD0706800F00C00042840F0A4
:1012800081803068800303D56068002800F04681C3
:10129000207880071BD5706810F00C0F09D070689B
:1012A00000F00C00082840F087807068C00300F14F
:1012B00083803068800703D52069012840F02E81A3
:1012C0003068616920F0F80040EAC10030602078A1
:1012D000000713D4207840072CD4E569002D00F0D6
:1012E0001881706800F00C00082840F0A780012DDC
:1012F00040F00481012002B0BDE8F081A06900281F
:1013000000F084800020C4F242200121C0F8801443
:10131000FFF7E0FD054600BF706A800700F1B2806C
:10132000FFF7D8FD401B0228F6D9032002B0BDE824
:10133000F08100BFF0695FEAC00808D4F06940F0AE
:101340008050F061F06900F080500090009847F202
:101350000007C4F200073868C00549D4386840F473
:1013600080703860FFF7B6FD054600BF3868C005DD
:101370003ED4FFF7AFFD401B6428F7D9032002B02D
:10138000BDE8F081706800F00C00082803D1706897
:10139000C0033FF576AF61683068002900F00C812A
:1013A000B1F5A02F00F00081B1F5803F40F01A8127
:1013B00040F480301CE100BF2069002840F20000AA
:1013C000C4F2422000F0888001210160FFF782FD15
:1013D000054600BF306880073FF572AFFFF77AFD22
:1013E000401B0228F6D9032002B0BDE8F08100BFFF
:1013F000E168306A002900F09D80052900F09280A4
:10140000012940F0AF8040F00100B1E00020C4F2BB
:1014100042200021C0F88014FFF75CFD054600BFA4
:10142000706A80077FF556AFFFF754FD401B022816
:10143000F6D9032002B0BDE8F08100BF0027C4F256
:10144000422700203866FFF745FD022D05460DD1E5
:101450003068800140F1DE80FFF73CFD401B022830
:101460004FF00300F4D902B0BDE8F081306880018C
:101470004FD5FFF72FFD401B02284FF00300F5D991
:10148000F1E700BF40F20C00C2F20000006844F631
:10149000D351C1F26201A0FB0101480A019000BFD3
:1014A00000BF0198411E002801913FF413AF00BF17
:1014B0000198411E002801913FF40CAF00BF019834
:1014C000411E002801913FF405AF00BF0198411E65
:1014D00000280191E4D1FDE600210160FFF7FAFC4C
:1014E000054600BF306880077FF5F1AEFFF7F2FCDC
:1014F000401B02284FF00300F4D9B4E77068216A5A
:1015000000F480328A4209D1616A00F47010884286
:1015100004D1002002B0BDE8F08100BF012002B07C
:10152000BDE8F08140F004003062306A40F0010014
:101530001EE000BF20F001003062306A20F004009D
:101540003062FFF7C7FC054641F28837306A8007F2
:1015500020D5FFF7BFFC401BB8424FF00300F5D980
:1015600081E700BF20F001003062306A20F0040003
:101570003062FFF7AFFC054641F28837306A8007DA
:1015800008D4FFF7A7FC401BB842F7D9032002B0EC
:10159000BDE8F081B8F1000F3FF59FAEF06920F093
:1015A0008050F06199E600BF40F4802030603068E0
:1015B00040F480301CE000BF20F4803030603068A0
:1015C00020F480203060FFF785FC054630688003FA
:1015D0007FF55EAEFFF77EFC401B64284FF00300F2
:1015E000F4D940E720F480303060306820F4802067
:1015F0003060FFF76FFC0546306880033FF548AE6A
:10160000FFF768FC401B6428F6D9032002B0BDE850
:10161000F08100BF206AB0F5803F05D17168A268F3
:1016200021F40031114371607168626A21F4741110
:1016300011430843706001203866FFF74BFC0446F5
:10164000306880013FF565AFFFF744FC001B0228BE
:101650004FF00300F4D906E7411E0020B0EB116FF4
:101660001CBF012070474EF21002CEF20002516002
:101670004EF62351CEF20001F0230B70072190604B
:1016800011607047704700007047000090F83C20E0
:10169000012A4FF0020236D010B580F83D200268D2
:1016A000D2F804E0D2F808C00C682EF0700323438F
:1016B00040F2FF74C4F20004A24253600ADCB2F1AB
:1016C000804F13D040F20043C4F200039A420DD081
:1016D00011E000BF42F60043C4F201039A4205D074
:1016E00040F60003C4F200039A4204D149682CF08A
:1016F0008003194391600121002280F83D1080F899
:101700003C20BDE81040104670470000002804BF90
:101710000120704710B590F83D1031B9002180F8D4
:101720003C10044600F070F82046022180F83D107D
:10173000016840F2FF740B68C4F2000442F6004CEA
:10174000A142C4F2010C15DCB1F1804F1AD040F275
:101750000042C4F20002914214D0A14218DCB1F15F
:10176000804F1DD040F20042C4F20002914217D0D7
:101770001AE000BF614505D040F60002C4F2000245
:101780009142EAD1826823F070031343A142E6DD5F
:10179000614505D040F60002C4F20002914203D137
:1017A000026923F440731343846923F08002D0F864
:1017B00004E0C368224361450A60CB62C1F828E0B7
:1017C00002D14269CCF8302001224A610B69DB0763
:1017D00003D00B6923F001030B6180F8462080F8E9
:1017E0003E2080F83F2080F8402080F8412080F89B
:1017F000422080F8432080F8442080F8452080F87B
:101800003D20002010BD00000068B0F1804F18BFDF
:10181000704780B582B041F21C00C4F2020001683A
:10182000002241F0010101600068002100F0010088
:10183000019001981C20FFF7CDFB1C2002B0BDE8F1
:101840008040FFF7B5BB000090F83D1001291CBF98
:1018500001207047022180F83D10006840F2FF72BD
:10186000C168C4F20002904241F00101C16009DC8C
:10187000B0F1804F12D040F20041C4F20001884222
:101880000CD012E042F60041C4F20101884205D0BA
:1018900040F60001C4F20001884206D1816801F0DF
:1018A0000701062904BF00207047016841F00101CB
:1018B000016000207047000090F83C20012A4FF0A2
:1018C00002026CD080B580F83D20D0F800C04FF601
:1018D0007772DCF8083023EA0202CCF808200B68A3
:1018E0004F2B29DC1F2B45DD202B46D0302B44D03D
:1018F000402B40F0AF80D1F804E0C968DCF820301C
:10190000DCF8202022F00102CCF82020DCF818209E
:1019100022F0F00242EA011123F00A0242EA0E022A
:10192000CCF81810CCF82020DCF8081041F0470162
:1019300021F0300128E000BF6F2B33DDB3F5005FED
:1019400074D0B3F5805F21D0702B40F08380D1E953
:1019500001E3C968DCF8082043EA0E0322F47F4261
:1019600043EA01211143CCF80810DCF8081041F0DB
:10197000770109E00BB1102B6CD1DCF8081021F0D5
:101980007001194341F00701CCF808100022012131
:1019900080F83D10002180F83C10BDE880401046E2
:1019A000704700BF502B21D0602B53D1D1F804E0F9
:1019B000C968DCF82030DCF8202022F01002CCF8D6
:1019C0002020DCF8182022F4704242EA013123F092
:1019D000A00242EA0E12CCF81810CCF82020DCF855
:1019E000081041F0670121F01001CDE7D1F804E0C3
:1019F000C968DCF82030DCF8202022F00102CCF8A5
:101A00002020DCF8182022F0F00242EA011123F035
:101A10000A0242EA0E02CCF81810CCF82020DCF8BA
:101A2000081041F0570121F02001ADE7D1E901E3B1
:101A3000C968DCF8082043EA0E0322F47F4243EA37
:101A400001211143CCF80810DCF8081041F4804162
:101A50009AE700BF01229AE77047000070B504467C
:101A60000068C5680669B10716D515F0020113D0E4
:101A70006FF002010161012121778069800703D0A5
:101A80002046FFF7E9FF05E0204600F08FF82046EA
:101A900000F08EF800202077700719D515F00400AB
:101AA00016D020686FF0040101610221217780695E
:101AB00010F4407F04D02046FFF7CEFF06E000BFC1
:101AC000204600F073F8204600F072F800202077DE
:101AD000300717D515F0080014D020686FF0080102
:101AE000016104212177C069800703D02046FFF7F8
:101AF000B3FF05E0204600F059F8204600F058F802
:101B000000202077F00619D515F0100016D02068B7
:101B10006FF01001016108212177C06910F4407F46
:101B200004D02046FFF798FF06E000BF204600F0F3
:101B30003DF8204600F03CF800202077F00718BF61
:101B400015F0010002D1300609D412E020686FF0D0
:101B500001010161204600F02DF8300609D515F08D
:101B6000800006D020686FF0800101612046FFF7F9
:101B700089FD700609D515F0400006D020686FF089
:101B800040010161204600F039F8B00658BF70BD31
:101B900015F0200008D021686FF0200220460A616D
:101BA000BDE87040FFF770BD70BD000070470000D9
:101BB0007047000010B540F27804C2F20004211D05
:101BC000884218BF10BD207861880130C2B22070F1
:101BD000481C052A608004D30020207001F090FA90
:101BE000608880B2B0F57A7F06D300206080BDE8BF
:101BF000104000F005BF00BF10BD0000704700009E
:101C00007047000070470000B0B582B001680A68F4
:101C1000CC684B6902F02F05202D04F0200505D17A
:101C200025B102B0BDE8B04000F0AABF5FEA027C77
:101C30001EBF03F0010E04F4907313EB0E0341D1A9
:101C4000036BD50618D5012B16D114F0100313D051
:101C5000002201920A6801924A680192019A496938
:101C600049064BD4818DC28DC38D002B18BF914284
:101C700040F0F48102B0B0BD13062DD514F08003FE
:101C80002AD090F84120212AF4D18268B2F5805FF1
:101C900003D10269002A00F06782026A531C0362C2
:101CA00012784A60C28C013A1304C284E2D1C86837
:101CB00020F08000C860C86840F04000C86002B0F2
:101CC000B0BD00BFD30718BF14F4807340F0D080BC
:101CD000530700F1D380D8E05206CBD514F0400270
:101CE000C8D0CA6822F04002CA60202180F84110A2
:101CF00002B0BDE8B04000F021BC00BFC16B0A6873
:101D0000526893B2002BB5D0858DAB42B2D2C2855A
:101D10008969202900F0A180016851E8031F026849
:101D200021F4807142E80313DBB1016851E8031F1D
:101D3000026821F4807142E8031393B1016851E80D
:101D4000031F026821F4807142E803134BB101685C
:101D500051E8031F026821F4807142E80313002B4D
:101D6000DAD1016851E8051F026821F0010142E85B
:101D70000513C3B3016851E8051F026821F0010192
:101D800042E805137BB3016851E8051F026821F0A2
:101D9000010142E8051333B3016851E8051F0268E9
:101DA00021F0010142E80513002BDAD11BE000BF4E
:101DB000016851E8051F026821F0400142E805135F
:101DC000DBB1016851E8051F026821F0400142E8DB
:101DD000051393B1016851E8051F026821F0400125
:101DE00042E805134BB1016851E8051F026821F074
:101DF000400142E80513002BDAD1202180F842107F
:101E000000210163016851E8031F026821F01001FD
:101E100042E80313DBB1016851E8031F026821F0B7
:101E2000100142E8031393B1016851E8031F0268EF
:101E300021F0100142E803134BB1016851E8031F80
:101E4000026821F0100142E80313002BDAD1C16BC4
:101E500004460846FEF796FE204602214163818D26
:101E6000C28D891A89B202B0BDE8B040FFF7C8BE82
:101E7000436C43F001034364530706D5BEF1000FE2
:101E800003D0436C43F002034364930706D5BEF1CD
:101E9000000F03D0436C43F004034364BCF1000F14
:101EA00006D55EEA050303D0436C43F008034364A0
:101EB000436C002B3FF4DEAE920605D525B10446F7
:101EC00000F05EFE216820464969426C01F0400145
:101ED00002F00802891800F0B98000BF016851E8DB
:101EE000031F026821F4907142E80313BBB3016839
:101EF00051E8031F026821F4907142E8031373B3A1
:101F0000016851E8031F026821F4907142E803134D
:101F10002BB3016851E8031F026821F4907142E875
:101F20000313002BDAD11AE0016851E8051F02689B
:101F300021F0010142E80513DBB1016851E8051FFA
:101F4000026821F0010142E8051393B1016851E8EC
:101F5000051F026821F0010142E805134BB1016839
:101F600051E8051F026821F0010142E80513002B2A
:101F7000DAD1016B012924D1016851E8031F0268FD
:101F800021F0100142E80313DBB1016851E8031F9F
:101F9000026821F0100142E8031393B1016851E88F
:101FA000031F026821F0100142E803134BB10168DE
:101FB00051E8031F026821F0100142E80313002BCF
:101FC000DAD1202180F842100021016301684969BB
:101FD000490640F1C380016851E8051F026821F0FD
:101FE000400142E80513DBB1016851E8051F0268B2
:101FF00021F0400142E8051393B1016851E8051F43
:10200000026821F0400142E805134BB1016851E834
:10201000051F026821F0400142E80513002BDAD1C8
:10202000C16B002900F09A8042F67532C0F60002BA
:10203000044608464A63FEF7C9FD00283FF41AAE7D
:10204000E06B416B02B0BDE8B04008470446FFF7C3
:10205000D9FD0020606402B0B0BD00BF891A00BF86
:10206000026852E8032F036822F4907243E80325C4
:10207000BDB3026852E8032F036822F4907243E86C
:10208000032575B3026852E8032F036822F49072A7
:1020900043E803252DB3026852E8032F036822F4B6
:1020A000907243E80325002DDAD11AE0026852E865
:1020B000052F036822F0010243E80525DDB102681F
:1020C00052E8052F036822F0010243E8052595B187
:1020D000026852E8052F036822F0010243E8052553
:1020E0004DB1026852E8052F036822F0010243E86F
:1020F0000525002DDAD1202280F84220002202633B
:10210000026852E8032F036822F0100243E8032517
:10211000DDB1026852E8032F036822F0100243E8A1
:10212000032595B1026852E8032F036822F01002DC
:1021300043E803254DB1026852E8032F036822F0FB
:10214000100243E80325002DDAD1022289B242634E
:1021500002B0BDE8B040FFF753BD00BF02B0BDE81C
:10216000B040FFF74FBD00BF026A32F8023B6FF389
:102170005F234B60026295E5002804BF0120704791
:1021800010B5044690F8410028B9002084F84000BA
:10219000204600F063F8242084F841002068D4E948
:1021A0000212C36823F40053C360036923F440534D
:1021B0001A430261D4E904231143C268194341F26E
:1021C0000C639A431143C1604169A26921F44071D3
:1021D000114343F60002C4F201029042416103D070
:1021E000FFF712F802E000BFFFF722F8D4E900235E
:1021F000192148439900B0FBF1F048F21F5CC5F289
:10220000EB1CA0FB0C314FF69C734909C0F6FF7321
:1022100001FB0300322303EB0010A0FB0C03F020B2
:1022200000EA531000EB0110C3F34311084490601F
:102230001069202120F490401061506920F02A009C
:102240005061D06840F40050D0600020606484F891
:10225000411084F84210606310BD0000F0B585B0F5
:10226000006844F20041C4F2000188424FF00001CE
:10227000CDE90311CDE9011122D043F60001C4F2EA
:102280000101884253D141F21800C4F202000168F2
:10229000252441F48041016001684FF4806701F416
:1022A000804100910099016841F0040101600068DB
:1022B00000F00400009000984FF4007019E000BF97
:1022C00041F21800C4F202004168262441F40031B2
:1022D00041604168082701F40031009100990168CC
:1022E00041F004010160006800F0040000900098D3
:1022F00004200190022040F6000502900320C4F261
:10230000010501AE049028463146FEF7CFFC0020BF
:10231000CDE90200284631460197FEF7C7FC20466A
:1023200000210022FEF756FE2046FEF741FE05B0D2
:10233000F0BD000090F84230202B07D100294FF06B
:10234000010318BF002A05D118467047022318461A
:10235000704700BF00230363816222218285C2850A
:10236000436480F842100169006819B1C16841F402
:102370008071C160416941F001014161C16841F072
:102380002001C16018467047006843F60001C4F29E
:102390000101884206D044F20041C4F200018842A3
:1023A00018BF704700F07ABC2DE9F04381B00446B5
:1023B00090F84100202809D100294FF0010018BFF2
:1023C000002A07D101B0BDE8F08300BF022001B0B0
:1023D000BDE8F0830020606421201D460E4684F88D
:1023E00041001746FEF776FDA784E784A168814681
:1023F000B1F5805F02D1206900285DD0374600200A
:10240000E28C2168002A5DD06A1C24D0002D4AD0BD
:10241000804600BF0868000608D4FEF75BFDA0EB0D
:102420000900A8427AD82168C868F3E717B117F8FD
:10243000010B04E038F8020B00276FF35F204860BF
:10244000E08C0138E084E08C0028E3D13AE000BF62
:102450000A68120609D40A68120606D40A68120627
:102460005CBF0A685FEA0262F2D51FB117F8012B60
:1024700005E000BF30F8022B00276FF35F224A60AF
:10248000E28C013AE284E28C002AE4D11AE000BF37
:1024900030F8022B00276FF35F224A60E28C013A8A
:1024A000E284E28C72B10A68120635D5002FEFD0B3
:1024B00017F8012BF1E700BF00273046E28C2168B6
:1024C000002AA1D1086840061ED42DB3681C14D17F
:1024D000086840062AD40868400627D408684006E1
:1024E00024D4086840064FF00000F1D50DE000BF8D
:1024F0002068C1680068400618D4FEF7EBFCA0EB2A
:102500000900A842F4D909E00020202184F84110F4
:1025100001B0BDE8F08300BFFEF7DCFC0320202102
:1025200084F8411001B0BDE8F08300BF00202021F5
:1025300084F8411001B0BDE8F0830000704700004E
:10254000FEE700002DE9F04786B0002741F21800B1
:10255000CDE90477CDE90277C4F20200016840F6C4
:10256000000841F0200101600168C4F2010801F097
:102570002001019101990168002241F004010160EC
:10258000016801F0040101910199016841F008011D
:10259000016000684FF4B87100F0080001900198E4
:1025A0004046FEF791FC08F5806420464FF2F81192
:1025B0000022FEF789FC702002AE029001254FF048
:1025C000020940463146CDE90357CDF81490FEF795
:1025D0006DFB4FF2C01002A9A1C14FF0030A2046C3
:1025E0003146CDF814A0FEF761FB4FF4807002A9CC
:1025F00081E8A10440463146FEF758FB4FF4004005
:10260000CDE90207404631460495FEF74FFB3820DE
:1026100002A981E8A10220463146FEF747FB06B039
:10262000BDE8F08710B586B040F27804C2F200042D
:102630004FF080422046002140F8042F41F61F420F
:1026400009230591CDE90311CDE90011C0E901216C
:10265000C0E903318161FFF759F8002818BFFEF780
:102660008BFA4FF480500434029002A92046FFF701
:1026700023F9002818BFFEF77FFA69462046FFF7C6
:1026800005F8002818BFFEF777FA06B010BD000065
:1026900080B540F2441043F60001C2F20000C4F2DB
:1026A000010100234FF00C0C4FF4E13280E80E00E2
:1026B000C0E90333C0E905C3C361FFF75DFD00282E
:1026C00008BF80BDBDE88040FEF756BA80B540F235
:1026D0008C1044F20041C2F20000C4F20001002359
:1026E0004FF00C0C4FF4E13280E80E00C0E90333E8
:1026F000C0E905C3C361FFF73FFD002808BF80BDE7
:10270000BDE88040FEF738BAFEE70000FEE70000B3
:10271000022888BF704770B5C000C0B2012121FAFD
:1027200000F24FF4807140F6004421FA00F54FF4B6
:102730008031C4F2010421FA00F620464021FEF760
:10274000C3FBEAB220464FF48071FEF7BDFBF2B244
:1027500020468021BDE87040FEF7B6BB632888BFE5
:1027600070472DE9F04F81B0CD214143CE0A06EBF1
:10277000860140F60044A0EB4101C4F201045FFA77
:1027800081FA0090204610210122FEF79DFB204691
:1027900008210022FEF798FB204608210122FEF7BF
:1027A00093FB6FF45F7020FA0AF000F001022046FC
:1027B0001021FEF789FB204608210022FEF784FB4A
:1027C000204608210122FEF77FFB4FF61245CFF687
:1027D000FF7505F17C0727FA0AF000F00102204698
:1027E0001021FEF771FB204608210022FEF76CFB4A
:1027F000204608210122FEF767FB05F52A7828FA12
:102800000AF000F0010220461021FEF75DFB204691
:1028100008210022FEF758FB204608210122FEF77E
:1028200053FB05F1800929FA0AF000F00102204665
:102830001021FEF749FB204608210022FEF744FB49
:10284000204608210122FEF73FFBAAF10200B0FA60
:1028500080F0420920461021FEF736FB2046082171
:102860000022FEF731FB204608210122FEF72CFB57
:1028700005F14E0B2BFA0AF000F001022046102160
:10288000FEF722FB204608210022FEF71DFB204612
:1028900008210122FEF718FB25FA0AF000F00102D8
:1028A00020461021FEF710FB204608210022FEF7EB
:1028B0000BFB204608210122FEF706FB20461021D3
:1028C0000122FEF701FB204608210022FEF7FCFA58
:1028D000204608210122FEF7F7FA6FF45F70F040FE
:1028E00000F0010220461021FEF7EEFA20460821F2
:1028F0000022FEF7E9FA204608210122FEF7E4FA59
:1029000027FA06F000F0010220461021FEF7DCFA5B
:10291000204608210022FEF7D7FA2046082101228E
:10292000FEF7D2FA28FA06F000F001022046102144
:10293000FEF7CAFA204608210022FEF7C5FA204613
:1029400008210122FEF7C0FA29FA06F000F0010280
:1029500020461021FEF7B8FA204608210022FEF793
:10296000B3FA204608210122FEF7AEFA00980022B1
:102970001438C0B20A2820464FF0100138BF012297
:10298000FEF7A2FA204608210022FEF79DFA204613
:1029900008210122FEF798FA2BFA06F000F0010256
:1029A00020461021FEF790FA204608210022FEF76B
:1029B0008BFA204608210122FEF786FA25FA06F056
:1029C00000F0010220461021FEF77EFA2046082181
:1029D0000022FEF779FA204608210122FEF774FA58
:1029E000204620210122FEF76FFA204620210022F6
:1029F00001B0BDE8F04FFEF767BA00007047000075
:102A0000B0B540F27004C2F2000494F9010001284C
:102A100012DBA178013860700139C0B2A170FFF7F4
:102A20009DFEA078FDF758FF0120FFF771FE002002
:102A3000BDE8B040FDF728BF207998B10220FFF72C
:102A400067FE0020FDF720FF2079A1780138207172
:102A50000139C0B2A170FFF781FEA078BDE8B04097
:102A6000FDF73ABF94F90300012825DBA17979B974
:102A700038A0FDF783FC40F28C10C2F2000036A1B2
:102A800001224FF0FF330125FFF78EFCE078A5719E
:102A9000217801380139E070C8B22170FFF75EFE7D
:102AA000E078FDF719FF0020FFF732FE0120BDE8B6
:102AB000B040FDF7E9BE00BF607998B10020FFF794
:102AC00027FE0220FDF7E0FE607921780138607171
:102AD000481E2070C0B2FFF741FE6079BDE8B040EB
:102AE000FDF7FABE40F20800C2F200000178427819
:102AF0008378C0780331E070D81CA07040F20330B6
:102B0000A080012062702170FFF702FE00200025E6
:102B1000FDF7BAFE6078A178013860700139C0B263
:102B2000A170FFF71BFEA078FDF7D6FE07A0A571E8
:102B3000FDF724FC40F28C10C2F2000004A1012237
:102B40004FF0FF33BDE8B040FFF72EBC230D00006F
:102B5000230000002A0D00002A000000704700003A
:102B6000FEF7BEB97047000040F27C00C2F20000E0
:102B7000FEF774BF406A0021C185C184FFF742B8E7
:102B800081B090F84210222921D183680246B3F522
:102B9000805F09D152F8281F52F8183C002B63D0EF
:102BA00003685B680AE000BF52F8281F13B9036985
:102BB000002BF5D003685B6803F07F030B7011688E
:102BC00001311160C18D01390A04C18502D001B003
:102BD000704700BF0168CA6822F02002CA60CA6854
:102BE00022F48072CA604A6922F001024A612021FF
:102BF00080F8421000214163026B012A3CD101633D
:102C0000016851E8031F026821F0100142E8031334
:102C1000DBB1016851E8031F026821F0100142E8AE
:102C2000031393B1016851E8031F026821F01001FA
:102C300042E803134BB1016851E8031F026821F019
:102C4000100142E80313002BDAD101680A68D206AA
:102C500006D5002200920A68009249680091009906
:102C6000818D01B0FEF7CCBF026852686FF35F221E
:102C700021F8022B8162A5E701B0FFF785BB0000B8
:102C800040F24410C2F20000FEF7BEBF40F28C10CA
:102C9000C2F20000FEF7B8BFFEE700002DE9F043E6
:102CA00087B040F2D410C2F2000040F2D818017888
:102CB000C2F2000898F80000232919D108F1010593
:102CC00000262E5428464721FDF76EFB074628466E
:102CD0005221FDF769FB40F20809002FC2F20009FA
:102CE00018BF00280AD1A9F80060002745E000BFFE
:102CF000421C404488F80020417068E0B842F2D39A
:102D0000002487424FF0000608D2C61B04AA791C93
:102D1000074610463246FDF751FB3846437804A972
:102D20008C55D3B100240DF1060100BF021996782D
:102D30000B556EB1D3780F197E705BB11679BB70ED
:102D400056B153790434002BFE70EFD105E000BF7B
:102D5000013402E0023400E003340DF106060020E5
:102D6000305504A8FDF7FCFA074689F80000304604
:102D7000FDF7F6FA064689F8010043F2DA20C0F6BC
:102D80000000294689F8037089F80260FDF742FACD
:102D900099F9011043F2B220C0F60000FDF73AFAAB
:102DA00099F9001015A0FDF735FA99F903101DA047
:102DB000FDF730FA99F9021024A0FDF72BFA2DA0A7
:102DC000FDF7DCFA404640F20111FDF73CFB40F212
:102DD000D41440F24410C2F20004C2F200002146B2
:102DE0000122FFF7A7FA40F28C10C2F20000214640
:102DF000012207B0BDE8F043FFF79CBA5265645F5B
:102E0000477265656E5F4C65645F446174612E4E08
:102E1000535F5265645F54696D65203D2025640DE4
:102E20000A0000005265645F477265656E5F4C651D
:102E3000645F446174612E45575F477265656E5FDC
:102E400054696D65203D2025640D0A005265645F5C
:102E5000477265656E5F4C65645F446174612E45C1
:102E6000575F5265645F54696D65203D2025640D90
:102E70000A000000736574206F6B0D0A0D000000DE
:102E800080B540F2D810C2F2000040F20111FDF707
:102E9000DAFA80BD7047000000EB81008260704765
:102EA000B0B5044640688047E278510702D02188D7
:102EB00001312180B0EBD21F02F0C7010DD00123F8
:102EC00003EBD20303F0070341EAC301052BE170D2
:102ED00004D302F0470141EAC011E17001F007009C
:102EE000052800F29F80DFE800F0033B21539D6B33
:102EF000A378C8B2C1F38012B2EBD01F03F00F0069
:102F000040F09280A2680125A07032B1204690471F
:102F1000A078E17865F3030005460020208001F0E9
:102F2000F800A5700130E070B0BD00BFC8B2C1F3B9
:102F30008012B2EBD01F65D1A26812B12046904733
:102F4000E178A078421C02F00F0200F0F00010447B
:102F5000A0700020208001F0F8000330E070B0BDC8
:102F6000C8B2C1F38012B2EBD01F61D12088C9284A
:102F700058D3A078E269052363F31F10A07012B143
:102F800020469047E17801F0F8000530E070B0BDD0
:102F9000C8B2C1F38011B1EBD01F43D0A078E16873
:102FA000012262F31F10A07009B1204688472088D3
:102FB0003B2846D9E07800F0F800E070B0BD00BFD3
:102FC000A378C8B2C1F38012B2EBD01F03F00F0098
:102FD00040D1218845F62942CCF28F22514345F653
:102FE00028424FEAB101C0F28F22914200F1600005
:102FF000A07017D8216A002908BFB0BD2046BDE8DF
:10300000B040084720883D280CD3A07800F00F007E
:1030100003282FD0022829D00128CBD121692120D3
:103020002AE000BFB0BD00BF8030A070B0BD00BFBF
:10303000A078E268012363F31F10A07012B120464C
:103040009047E1780020208001F0F8000230E07025
:10305000B0BD00BFE2681030A07012B120469047AA
:10306000E17801F0F800E070B0BD00BF6169322086
:1030700002E000BFA16943200029A0709AD0204639
:103080008847E07800F0F800E070B0BD70B50D46FC
:10309000282114460646FDF7D6F98020B0707560E9
:1030A000A847F17801F03F0141EAC01004F00101A6
:1030B00040EA8110F07070BD40F24011C2F2000190
:1030C0000A68AAB1134600BF834204BF4FF0FF3025
:1030D00070475B6A63B183420ED05B6A43B183423F
:1030E0000AD05B6A23B1834206D05B6A002BEBD126
:1030F00042620860002070474FF0FF3070470000C8
:1031000010B540F24010C2F20000046804E000BFB5
:103110002046FFF7C5FE646A002C08BF10BDF7E724
:1031200043F60001C4F201010A68520609D40A6894
:1031300052065CBF0A685FEA426202D40A6852061D
:10314000F2D5C2B24A60704790B0FDF7D7FE0024B6
:103150000120CDE90B44CDE9094406900A904FF4D3
:10316000E0104FF4803102250F9006A8CDE9071436
:10317000CDE90D51FEF770F820B1EFF3108072B673
:10318000FEE700BF0F20CDE901054FF48060CDE9D7
:10319000040401A802210394FDF758FF20B1EFF3C6
:1031A000108072B6FEE700BFFFF7CCF9FFF770FAA8
:1031B000FFF738FAFFF78AFA40F60004C4F2010478
:1031C00004F580604FF400410122FDF77DFE2046AA
:1031D0004FF480710122FDF777FE40F21814C2F21D
:1031E000000443F24D21C0F6000120460022FFF703
:1031F0004DFF40F66D02C0F6000220460321FFF7A6
:103200004BFE2046FFF758FF40F27C00C2F2000060
:10321000FEF71AFB40F2D41440F24410C2F200044C
:10322000C2F2000021460122FFF784F84FF4FA6051
:10323000FDF728FD40F28C10C2F200002146012269
:10324000FFF778F8FFF71CFEFEE7000040F60000ED
:10325000C4F201004FF40041FDF730BE10B5002963
:103260000AD00878002807D005487844FDF7BEFA50
:10327000002801D0002010BD0248784410BD000095
:10328000AE000000A60000000000000000000000EA
:1032900001020304060708090000000001020304FC
:1032A000010202030405060708090A0B0C0D0E0FA4
:1032B00010105265645F477265656E5F4C65645FB0
:1032C000446174612E4E535F477265656E5F546949
:1032D0006D65203D2025640D0A0075736172745F71
:1032E000646174612E75736172745F6461746120CE
:1032F0003D2025730D0A000028340008000000203E
:1033000010000000500100083834000810000020B0
:10331000D008000070010008100100004300000008
:10332000F8FFFFFF004040404040404040404141E6
:10333000414141404040404040404040404040408A
:103340004040404040050202020202020202020224
:103350000202020202202020202020202020200221
:1033600002020202020290909090909010101010B1
:10337000101010101010101010101010101010104D
:1033800002020202020288888888888808080808E1
:1033900008080808080808080808080808080808AD
:1033A00002020202400000000000000000000000D5
:1033B000000000000000000000000000000000000D
:1033C00000000000000000000000000000000000FD
:1033D00000000000000000000000000000000000ED
:1033E00000000000000000000000000000000000DD
:1033F00000000000000000000000000000000000CD
:1034000000000000000000000000000000000000BC
:1034100000000000000000000000000000000000AC
:10342000000000000000000001000000100000008B
:083430000505050500127A00F4
:04000005080000ED02
:00000001FF
